{
  "_format": "hh3-artifact-1",
  "contractName": "CupFolioHook",
  "sourceName": "contracts/CupFolioHook.sol",
  "abi": [
    {
      "anonymous": false,
      "inputs": [
        {
          "indexed": true,
          "internalType": "address",
          "name": "agent",
          "type": "address"
        }
      ],
      "name": "AIAgentSet",
      "type": "event"
    },
    {
      "anonymous": false,
      "inputs": [
        {
          "indexed": true,
          "internalType": "bytes32",
          "name": "poolId",
          "type": "bytes32"
        },
        {
          "indexed": false,
          "internalType": "string",
          "name": "teamA",
          "type": "string"
        },
        {
          "indexed": false,
          "internalType": "string",
          "name": "teamB",
          "type": "string"
        },
        {
          "indexed": false,
          "internalType": "uint32",
          "name": "groupId",
          "type": "uint32"
        },
        {
          "indexed": false,
          "internalType": "address",
          "name": "poolAddress",
          "type": "address"
        }
      ],
      "name": "PoolRegistered",
      "type": "event"
    },
    {
      "anonymous": false,
      "inputs": [
        {
          "indexed": true,
          "internalType": "bytes32",
          "name": "poolId",
          "type": "bytes32"
        },
        {
          "indexed": false,
          "internalType": "uint8",
          "name": "oldProb",
          "type": "uint8"
        },
        {
          "indexed": false,
          "internalType": "uint8",
          "name": "newProb",
          "type": "uint8"
        }
      ],
      "name": "UpsetProbabilityUpdated",
      "type": "event"
    },
    {
      "inputs": [],
      "name": "aiAgent",
      "outputs": [
        {
          "internalType": "address",
          "name": "",
          "type": "address"
        }
      ],
      "stateMutability": "view",
      "type": "function"
    },
    {
      "inputs": [],
      "name": "aiAgentSet",
      "outputs": [
        {
          "internalType": "bool",
          "name": "",
          "type": "bool"
        }
      ],
      "stateMutability": "view",
      "type": "function"
    },
    {
      "inputs": [
        {
          "internalType": "uint8",
          "name": "probability",
          "type": "uint8"
        }
      ],
      "name": "getFeeForProbability",
      "outputs": [
        {
          "internalType": "uint24",
          "name": "",
          "type": "uint24"
        }
      ],
      "stateMutability": "pure",
      "type": "function"
    },
    {
      "inputs": [
        {
          "internalType": "bytes32",
          "name": "poolId",
          "type": "bytes32"
        }
      ],
      "name": "getPoolConfig",
      "outputs": [
        {
          "components": [
            {
              "internalType": "uint8",
              "name": "upsetProbability",
              "type": "uint8"
            },
            {
              "internalType": "uint24",
              "name": "customFee",
              "type": "uint24"
            },
            {
              "internalType": "bool",
              "name": "isActive",
              "type": "bool"
            },
            {
              "internalType": "uint256",
              "name": "lastUpdate",
              "type": "uint256"
            },
            {
              "internalType": "string",
              "name": "teamA",
              "type": "string"
            },
            {
              "internalType": "string",
              "name": "teamB",
              "type": "string"
            },
            {
              "internalType": "uint32",
              "name": "groupId",
              "type": "uint32"
            },
            {
              "internalType": "address",
              "name": "poolAddress",
              "type": "address"
            }
          ],
          "internalType": "struct CupFolioHook.PoolConfig",
          "name": "",
          "type": "tuple"
        }
      ],
      "stateMutability": "view",
      "type": "function"
    },
    {
      "inputs": [
        {
          "internalType": "address",
          "name": "poolAddress",
          "type": "address"
        }
      ],
      "name": "getUpsetProbability",
      "outputs": [
        {
          "internalType": "uint8",
          "name": "",
          "type": "uint8"
        }
      ],
      "stateMutability": "view",
      "type": "function"
    },
    {
      "inputs": [
        {
          "internalType": "bytes32",
          "name": "",
          "type": "bytes32"
        }
      ],
      "name": "poolConfigs",
      "outputs": [
        {
          "internalType": "uint8",
          "name": "upsetProbability",
          "type": "uint8"
        },
        {
          "internalType": "uint24",
          "name": "customFee",
          "type": "uint24"
        },
        {
          "internalType": "bool",
          "name": "isActive",
          "type": "bool"
        },
        {
          "internalType": "uint256",
          "name": "lastUpdate",
          "type": "uint256"
        },
        {
          "internalType": "string",
          "name": "teamA",
          "type": "string"
        },
        {
          "internalType": "string",
          "name": "teamB",
          "type": "string"
        },
        {
          "internalType": "uint32",
          "name": "groupId",
          "type": "uint32"
        },
        {
          "internalType": "address",
          "name": "poolAddress",
          "type": "address"
        }
      ],
      "stateMutability": "view",
      "type": "function"
    },
    {
      "inputs": [
        {
          "internalType": "address",
          "name": "",
          "type": "address"
        }
      ],
      "name": "poolIdByAddress",
      "outputs": [
        {
          "internalType": "bytes32",
          "name": "",
          "type": "bytes32"
        }
      ],
      "stateMutability": "view",
      "type": "function"
    },
    {
      "inputs": [
        {
          "internalType": "bytes32",
          "name": "poolId",
          "type": "bytes32"
        },
        {
          "internalType": "address",
          "name": "poolAddress",
          "type": "address"
        },
        {
          "internalType": "string",
          "name": "teamA",
          "type": "string"
        },
        {
          "internalType": "string",
          "name": "teamB",
          "type": "string"
        },
        {
          "internalType": "uint32",
          "name": "groupId",
          "type": "uint32"
        }
      ],
      "name": "registerPool",
      "outputs": [
        {
          "internalType": "bool",
          "name": "",
          "type": "bool"
        }
      ],
      "stateMutability": "nonpayable",
      "type": "function"
    },
    {
      "inputs": [
        {
          "internalType": "address",
          "name": "_aiAgent",
          "type": "address"
        }
      ],
      "name": "setAIAgent",
      "outputs": [],
      "stateMutability": "nonpayable",
      "type": "function"
    },
    {
      "inputs": [
        {
          "internalType": "address",
          "name": "poolAddress",
          "type": "address"
        },
        {
          "internalType": "uint8",
          "name": "probability",
          "type": "uint8"
        }
      ],
      "name": "updateUpsetProbability",
      "outputs": [
        {
          "internalType": "uint24",
          "name": "",
          "type": "uint24"
        }
      ],
      "stateMutability": "nonpayable",
      "type": "function"
    }
  ],
  "bytecode": "0x608060405234801561000f575f80fd5b50611c388061001d5f395ff3fe608060405234801561000f575f80fd5b506004361061009b575f3560e01c806336b94f4a1161006457806336b94f4a146101845780636ebe941b146101b457806370a9e561146101d057806371ab54ea14610200578063a6d5b732146102305761009b565b80629450a41461009f578063037aadbe146100cf57806307ef2190146100ff5780631052a555146101365780631727f61114610154575b5f80fd5b6100b960048036038101906100b49190610f4d565b61024e565b6040516100c69190610f90565b60405180910390f35b6100e960048036038101906100e49190610fd3565b610263565b6040516100f691906111d3565b60405180910390f35b61011960048036038101906101149190610fd3565b61048b565b60405161012d989796959493929190611295565b60405180910390f35b61013e610630565b60405161014b919061131f565b60405180910390f35b61016e60048036038101906101699190610f4d565b610642565b60405161017b9190611338565b60405180910390f35b61019e6004803603810190610199919061137b565b6106ac565b6040516101ab91906113a6565b60405180910390f35b6101ce60048036038101906101c99190610f4d565b61070c565b005b6101ea60048036038101906101e591906113bf565b610868565b6040516101f791906113a6565b60405180910390f35b61021a60048036038101906102159190611488565b610ac8565b604051610227919061131f565b60405180910390f35b610238610e63565b604051610245919061153f565b60405180910390f35b6002602052805f5260405f205f915090505481565b61026b610e86565b60015f8381526020019081526020015f20604051806101000160405290815f82015f9054906101000a900460ff1660ff1660ff1681526020015f820160019054906101000a900462ffffff1662ffffff1662ffffff1681526020015f820160049054906101000a900460ff16151515158152602001600182015481526020016002820180546102f990611585565b80601f016020809104026020016040519081016040528092919081815260200182805461032590611585565b80156103705780601f1061034757610100808354040283529160200191610370565b820191905f5260205f20905b81548152906001019060200180831161035357829003601f168201915b5050505050815260200160038201805461038990611585565b80601f01602080910402602001604051908101604052809291908181526020018280546103b590611585565b80156104005780601f106103d757610100808354040283529160200191610400565b820191905f5260205f20905b8154815290600101906020018083116103e357829003601f168201915b50505050508152602001600482015f9054906101000a900463ffffffff1663ffffffff1663ffffffff1681526020016004820160049054906101000a900473ffffffffffffffffffffffffffffffffffffffff1673ffffffffffffffffffffffffffffffffffffffff1673ffffffffffffffffffffffffffffffffffffffff16815250509050919050565b6001602052805f5260405f205f91509050805f015f9054906101000a900460ff1690805f0160019054906101000a900462ffffff1690805f0160049054906101000a900460ff16908060010154908060020180546104e890611585565b80601f016020809104026020016040519081016040528092919081815260200182805461051490611585565b801561055f5780601f106105365761010080835404028352916020019161055f565b820191905f5260205f20905b81548152906001019060200180831161054257829003601f168201915b50505050509080600301805461057490611585565b80601f01602080910402602001604051908101604052809291908181526020018280546105a090611585565b80156105eb5780601f106105c2576101008083540402835291602001916105eb565b820191905f5260205f20905b8154815290600101906020018083116105ce57829003601f168201915b505050505090806004015f9054906101000a900463ffffffff16908060040160049054906101000a900473ffffffffffffffffffffffffffffffffffffffff16905088565b5f60149054906101000a900460ff1681565b5f8060025f8473ffffffffffffffffffffffffffffffffffffffff1673ffffffffffffffffffffffffffffffffffffffff1681526020019081526020015f2054905060015f8281526020019081526020015f205f015f9054906101000a900460ff16915050919050565b5f60328260ff16106106c2576101f49050610707565b601e8260ff16106106d7576103e89050610707565b60148260ff16106106ec576107d09050610707565b600a8260ff1610610701576109c49050610707565b610bb890505b919050565b5f60149054906101000a900460ff161561075b576040517f08c379a0000000000000000000000000000000000000000000000000000000008152600401610752906115ff565b60405180910390fd5b5f73ffffffffffffffffffffffffffffffffffffffff168173ffffffffffffffffffffffffffffffffffffffff16036107c9576040517f08c379a00000000000000000000000000000000000000000000000000000000081526004016107c090611667565b60405180910390fd5b805f806101000a81548173ffffffffffffffffffffffffffffffffffffffff021916908373ffffffffffffffffffffffffffffffffffffffff16021790555060015f60146101000a81548160ff0219169083151502179055508073ffffffffffffffffffffffffffffffffffffffff167f95fdc5ead9844779e374bbd95c9404b7f75f5a0cd9572ecbc638042e48a936e860405160405180910390a250565b5f805f9054906101000a900473ffffffffffffffffffffffffffffffffffffffff1673ffffffffffffffffffffffffffffffffffffffff163373ffffffffffffffffffffffffffffffffffffffff16146108f7576040517f08c379a00000000000000000000000000000000000000000000000000000000081526004016108ee906116cf565b60405180910390fd5b60648260ff16111561093e576040517f08c379a00000000000000000000000000000000000000000000000000000000081526004016109359061175d565b60405180910390fd5b5f60025f8573ffffffffffffffffffffffffffffffffffffffff1673ffffffffffffffffffffffffffffffffffffffff1681526020019081526020015f2054905060015f8281526020019081526020015f205f0160049054906101000a900460ff166109df576040517f08c379a00000000000000000000000000000000000000000000000000000000081526004016109d6906117c5565b60405180910390fd5b5f60015f8381526020019081526020015f205f015f9054906101000a900460ff1690508360015f8481526020019081526020015f205f015f6101000a81548160ff021916908360ff1602179055504260015f8481526020019081526020015f20600101819055505f610a50856106ac565b90508060015f8581526020019081526020015f205f0160016101000a81548162ffffff021916908362ffffff160217905550827f1dc258046e5b6ac1f47abad48cec393f211ad100b0db64942154602e39661ecf8387604051610ab49291906117e3565b60405180910390a280935050505092915050565b5f805f9054906101000a900473ffffffffffffffffffffffffffffffffffffffff1673ffffffffffffffffffffffffffffffffffffffff163373ffffffffffffffffffffffffffffffffffffffff161480610b2f57505f60149054906101000a900460ff16155b610b6e576040517f08c379a0000000000000000000000000000000000000000000000000000000008152600401610b6590611854565b60405180910390fd5b60015f8981526020019081526020015f205f0160049054906101000a900460ff1615610bcf576040517f08c379a0000000000000000000000000000000000000000000000000000000008152600401610bc6906118bc565b60405180910390fd5b6040518061010001604052805f60ff168152602001610bb862ffffff16815260200160011515815260200142815260200187878080601f0160208091040260200160405190810160405280939291908181526020018383808284375f81840152601f19601f82011690508083019250505050505050815260200185858080601f0160208091040260200160405190810160405280939291908181526020018383808284375f81840152601f19601f8201169050808301925050505050505081526020018363ffffffff1681526020018873ffffffffffffffffffffffffffffffffffffffff1681525060015f8a81526020019081526020015f205f820151815f015f6101000a81548160ff021916908360ff1602179055506020820151815f0160016101000a81548162ffffff021916908362ffffff1602179055506040820151815f0160046101000a81548160ff021916908315150217905550606082015181600101556080820151816002019081610d499190611aa4565b5060a0820151816003019081610d5f9190611aa4565b5060c0820151816004015f6101000a81548163ffffffff021916908363ffffffff16021790555060e08201518160040160046101000a81548173ffffffffffffffffffffffffffffffffffffffff021916908373ffffffffffffffffffffffffffffffffffffffff1602179055509050508760025f8973ffffffffffffffffffffffffffffffffffffffff1673ffffffffffffffffffffffffffffffffffffffff1681526020019081526020015f2081905550877f3ee8eb1a3fc64c19e1d1b07fa0eae2d75e6db142ded87fe35ea13a804204981187878787878d604051610e4c96959493929190611bad565b60405180910390a260019050979650505050505050565b5f8054906101000a900473ffffffffffffffffffffffffffffffffffffffff1681565b6040518061010001604052805f60ff1681526020015f62ffffff1681526020015f151581526020015f815260200160608152602001606081526020015f63ffffffff1681526020015f73ffffffffffffffffffffffffffffffffffffffff1681525090565b5f80fd5b5f80fd5b5f73ffffffffffffffffffffffffffffffffffffffff82169050919050565b5f610f1c82610ef3565b9050919050565b610f2c81610f12565b8114610f36575f80fd5b50565b5f81359050610f4781610f23565b92915050565b5f60208284031215610f6257610f61610eeb565b5b5f610f6f84828501610f39565b91505092915050565b5f819050919050565b610f8a81610f78565b82525050565b5f602082019050610fa35f830184610f81565b92915050565b610fb281610f78565b8114610fbc575f80fd5b50565b5f81359050610fcd81610fa9565b92915050565b5f60208284031215610fe857610fe7610eeb565b5b5f610ff584828501610fbf565b91505092915050565b5f60ff82169050919050565b61101381610ffe565b82525050565b5f62ffffff82169050919050565b61103081611019565b82525050565b5f8115159050919050565b61104a81611036565b82525050565b5f819050919050565b61106281611050565b82525050565b5f81519050919050565b5f82825260208201905092915050565b5f5b8381101561109f578082015181840152602081019050611084565b5f8484015250505050565b5f601f19601f8301169050919050565b5f6110c482611068565b6110ce8185611072565b93506110de818560208601611082565b6110e7816110aa565b840191505092915050565b5f63ffffffff82169050919050565b61110a816110f2565b82525050565b61111981610f12565b82525050565b5f61010083015f8301516111355f86018261100a565b5060208301516111486020860182611027565b50604083015161115b6040860182611041565b50606083015161116e6060860182611059565b506080830151848203608086015261118682826110ba565b91505060a083015184820360a08601526111a082826110ba565b91505060c08301516111b560c0860182611101565b5060e08301516111c860e0860182611110565b508091505092915050565b5f6020820190508181035f8301526111eb818461111f565b905092915050565b6111fc81610ffe565b82525050565b61120b81611019565b82525050565b61121a81611036565b82525050565b61122981611050565b82525050565b5f82825260208201905092915050565b5f61124982611068565b611253818561122f565b9350611263818560208601611082565b61126c816110aa565b840191505092915050565b611280816110f2565b82525050565b61128f81610f12565b82525050565b5f610100820190506112a95f83018b6111f3565b6112b6602083018a611202565b6112c36040830189611211565b6112d06060830188611220565b81810360808301526112e2818761123f565b905081810360a08301526112f6818661123f565b905061130560c0830185611277565b61131260e0830184611286565b9998505050505050505050565b5f6020820190506113325f830184611211565b92915050565b5f60208201905061134b5f8301846111f3565b92915050565b61135a81610ffe565b8114611364575f80fd5b50565b5f8135905061137581611351565b92915050565b5f602082840312156113905761138f610eeb565b5b5f61139d84828501611367565b91505092915050565b5f6020820190506113b95f830184611202565b92915050565b5f80604083850312156113d5576113d4610eeb565b5b5f6113e285828601610f39565b92505060206113f385828601611367565b9150509250929050565b5f80fd5b5f80fd5b5f80fd5b5f8083601f84011261141e5761141d6113fd565b5b8235905067ffffffffffffffff81111561143b5761143a611401565b5b60208301915083600182028301111561145757611456611405565b5b9250929050565b611467816110f2565b8114611471575f80fd5b50565b5f813590506114828161145e565b92915050565b5f805f805f805f60a0888a0312156114a3576114a2610eeb565b5b5f6114b08a828b01610fbf565b97505060206114c18a828b01610f39565b965050604088013567ffffffffffffffff8111156114e2576114e1610eef565b5b6114ee8a828b01611409565b9550955050606088013567ffffffffffffffff81111561151157611510610eef565b5b61151d8a828b01611409565b935093505060806115308a828b01611474565b91505092959891949750929550565b5f6020820190506115525f830184611286565b92915050565b7f4e487b71000000000000000000000000000000000000000000000000000000005f52602260045260245ffd5b5f600282049050600182168061159c57607f821691505b6020821081036115af576115ae611558565b5b50919050565b7f4149206167656e7420616c7265616479207365740000000000000000000000005f82015250565b5f6115e960148361122f565b91506115f4826115b5565b602082019050919050565b5f6020820190508181035f830152611616816115dd565b9050919050565b7f496e76616c6964206167656e74206164647265737300000000000000000000005f82015250565b5f61165160158361122f565b915061165c8261161d565b602082019050919050565b5f6020820190508181035f83015261167e81611645565b9050919050565b7f4f6e6c79204149206167656e742063616e2075706461746500000000000000005f82015250565b5f6116b960188361122f565b91506116c482611685565b602082019050919050565b5f6020820190508181035f8301526116e6816116ad565b9050919050565b7f50726f626162696c697479206d757374206265206265747765656e20302d31305f8201527f3000000000000000000000000000000000000000000000000000000000000000602082015250565b5f61174760218361122f565b9150611752826116ed565b604082019050919050565b5f6020820190508181035f8301526117748161173b565b9050919050565b7f506f6f6c206e6f742072656769737465726564000000000000000000000000005f82015250565b5f6117af60138361122f565b91506117ba8261177b565b602082019050919050565b5f6020820190508181035f8301526117dc816117a3565b9050919050565b5f6040820190506117f65f8301856111f3565b61180360208301846111f3565b9392505050565b7f4f6e6c79204149206167656e742063616e20726567697374657220706f6f6c735f82015250565b5f61183e60208361122f565b91506118498261180a565b602082019050919050565b5f6020820190508181035f83015261186b81611832565b9050919050565b7f506f6f6c20616c726561647920726567697374657265640000000000000000005f82015250565b5f6118a660178361122f565b91506118b182611872565b602082019050919050565b5f6020820190508181035f8301526118d38161189a565b9050919050565b7f4e487b71000000000000000000000000000000000000000000000000000000005f52604160045260245ffd5b5f819050815f5260205f209050919050565b5f6020601f8301049050919050565b5f82821b905092915050565b5f600883026119637fffffffffffffffffffffffffffffffffffffffffffffffffffffffffffffffff82611928565b61196d8683611928565b95508019841693508086168417925050509392505050565b5f819050919050565b5f6119a86119a361199e84611050565b611985565b611050565b9050919050565b5f819050919050565b6119c18361198e565b6119d56119cd826119af565b848454611934565b825550505050565b5f90565b6119e96119dd565b6119f48184846119b8565b505050565b5b81811015611a1757611a0c5f826119e1565b6001810190506119fa565b5050565b601f821115611a5c57611a2d81611907565b611a3684611919565b81016020851015611a45578190505b611a59611a5185611919565b8301826119f9565b50505b505050565b5f82821c905092915050565b5f611a7c5f1984600802611a61565b1980831691505092915050565b5f611a948383611a6d565b9150826002028217905092915050565b611aad82611068565b67ffffffffffffffff811115611ac657611ac56118da565b5b611ad08254611585565b611adb828285611a1b565b5f60209050601f831160018114611b0c575f8415611afa578287015190505b611b048582611a89565b865550611b6b565b601f198416611b1a86611907565b5f5b82811015611b4157848901518255600182019150602085019450602081019050611b1c565b86831015611b5e5784890151611b5a601f891682611a6d565b8355505b6001600288020188555050505b505050505050565b828183375f83830152505050565b5f611b8c838561122f565b9350611b99838584611b73565b611ba2836110aa565b840190509392505050565b5f6080820190508181035f830152611bc681888a611b81565b90508181036020830152611bdb818688611b81565b9050611bea6040830185611277565b611bf76060830184611286565b97965050505050505056fea264697066735822122033879149f69e4a534acd45c9b6b4f7cc2d49aba8aaf2bf77481d1227619bb3e564736f6c63430008140033",
  "linkReferences": {},
  "deployedLinkReferences": {},
  "immutableReferences": {},
  "inputSourceName": "project/contracts/CupFolioHook.sol",
  "buildInfoId": "solc-0_8_20-904747cf8be256562650184ea3e8283018555465"
}